S01300006F75747075742F736F66742E7372656375
S214008000130000001300000013000000130000001F
S214008010130000001300000013000000130000000F
S21400802013000000130000001300000013000000FF
S21400803013000000130000001300000013000000EF
S21400804013000000130000001300000013000000DF
S2140080501300000013000000130000006F0040092A
S2140080606F00200A6F00000B6F00E00B6F00C00C63
S2140080706F00C00E6F00600D6F0080106F00200F45
S2100080806F00C0006F00E0106F00C01121
S21400808C81400681868106828682068386830684E4
S21400809C868406858685068686860687868706886F
S2140080AC868806898689068A868A068B868B068C3F
S2140080BC868C068D868D068E868E068F868F17018D
S2140080CC1000130161F36357BD0123200D00110D41
S2140080DCE3DDADFF01458145EF00A04D2A842285E6
S2140080ECEF0040211D7186CEC920970000009380BA
S2140080FC80106F0060161D7186CE45289700000014
S21400810C9380600F6F0060151D7186CE79289700DE
S21400811C00009380400E6F0060141D7186CE712097
S21400812C970000009380200D6F0060131D7186CEA3
S21400813CAD28970000009380000C6F0060121D7134
S21400814C86CEA520970000009380E00A6F00801171
S21400815C1D7186CE9928970000009380C0096F0089
S21400816C40101D7186CE9120970000009380A008C9
S21400817C6F00800F1D7186CE0D289700000093802F
S21400818C80076F00400E1D7186CE052097000000FC
S21400819C938060066F00000C1D7186CE3920970008
S2140081AC0000938040056F00000B0EC012C216C470
S2140081BC1AC61EC82ACA2ECC32CE36D03AD23ED4D6
S2140081CC42D646D872DA76DC7ADEFEC0732E007B98
S2140081DCF32E107B732F207BF2C2F6C4FAC6732ED6
S2140081EC407BF32E507B732F607BF2C8F6CAFACC1A
S2140081FC8280464ED64E664F73104E7B73905E7BD7
S21400820C73106F7B164EA64E364F73100E7B739004
S21400821C1E7B73102F7B82411242A2423243C24312
S21400822C5245E245724682561257A2573258C258E9
S21400823C525EE25E725F864FF64025617300203018
S21400824C828000000000000000000000000000001B
S20600825C00001B
S20600825E01A078
S20600826001A076
S20600826201A074
S20600826401A072
S20600826601A070
S20600826801A06E
S20600826A01A06C
S20600826C01A06A
S20600826E01A068
S20600827001A066
S20600827201A064
S20600827401A062
S214008276411106C622C463F4D500014429A03684FB
S214008286B2853686A9282285B240224441018280DC
S20600829625A814
S214008298931585010605FD85ED892D8D1375F50F5A
S2060082A88280CD
S2140082AA05C281462E960347050083C70500850545
S2140082BA3D8FD98E0505E398C5FE13F5F60F828025
S2080082CA0145828063
S2140082CE11CA2A96AA86138716002380B600BA8687
S20A0082DEE31BC7FE8280D0
S2140082E409CE2A96AA8603C7050085059387160035
S2100082F42380E600BE86E398C7FE82806A
S20600830001A0D5
S20600830201A0D3
S21400830441112AC632456358A00001450100B24512
S20E0083140505E34DB5FE4101828029
S21400831E03461500834625000347350083470500B0
S21400832E2206C20662075D8ED98E558E90C1034612
S21400833E55008346650003477500834745002206B1
S21400834EC20662075D8ED98E558ED0C10346950045
S21400835E834685000347A5008347B5002206558E43
S21400836E4207E2075D8F598E90C50346D5008346B9
S21400837EE5000347F5000345C5002206C206620760
S20E00838E518DD98E558DC8C582802A
S2140083980346150083462500034735008347050036
S2140083A82206C20662075D8ED98E558E90C1034698
S2140083B85500834665000347750083474500220637
S2140083C8C20662075D8ED98E558ED0C103469500CB
S2140083D8834685000347A5008347B5002206558EC9
S2140083E84207E2075D8F598E90C50346D50083463F
S2140083F8C5000347E5008347F5002206D18E13859E
S21400840805014207E2075D8F3706100013060600CF
S214008418D98ED4C51308A6008326C5FF032705FFF3
S2140084288347060093D58600E2063D8FD58D330731
S214008438B7223307B7623307B7A23307B7E28325F5
S21400844845FF832685FF8327C5FF0506B98DAD8EB4
S214008458B58F18C14CC114C55CC54105E31E06FBA3
S20600846882800B
S21400846ABD8991C18280317106DF22DD2A842C0003
S21400847A3285313F2248B2484246524714405C4051
S21400848A08444C44B3C60601B3C71701298EB98DF2
S21400849A481014C05CC010C44CC41308410B832592
S2140084AA45FFB385D526832685FF5840B386E6263C
S2140084BA0327C5FF1C443307F7261C415044B387DD
S2140084CAC7265040B385C5661044B386C666504470
S2140084DA3307C7661040B387C7661044B385C5A678
S2140084EA5044B386C6A610403307C7A65040B38783
S2140084FAC7A65044B385C5E61040B386C6E65040C4
S21400850A232CD5FE3307C7E61044232EE5FEB38791
S21400851AC7E6232AB5FE1CC141050CC054C018C4C0
S21400852A5CC4AE86E31D05F72A553A56CA565A570C
S21400853A3305B5224C403306B6220C44B386B6221F
S21400854A4C443307B7224C403305B5620C44330615
S21400855AB6624C44B386B6620C403307B7620C4424
S21400856A3305B5A24C443306B6A20C40B386B6A26F
S21400857A4C403307B7A24C443305B5E20C403306E9
S21400858AB6E24C40B386B6E20C443307B7E208C0FC
S21200859A50C014C458C4FA506A542961828036
S2080085A80CC18280FB
S2140085AC904110C1D04150C1904510C5CC454CC52A
S2060085BC8280B6
S2140085BE011106CE22CC3724100037656C6CB73509
S2140085CE205737766C64B73630301305855493854E
S2140085DEF5C61306F626938616022AC42EC632C88B
S2140085EE36CA370610001306A6002800C145BD354C
S2140085FE3715A5FBB7F54B7137B6252EB716F9AA64
S21400860E130745919387F5411305E6AB9385F680E0
S21400861E18D85CD808DC4CDCA24634C0324568C09C
S21400862EC2452CC4524637B8AABA70C454C01308F2
S21400863EB8AA639CE60248C06319F5024CC037B769
S21400864E252E9307E7AB37B7AABA6399F500B71787
S21400865EF9AA9387F78050C06305F6001308B7AAE9
S21400866E29A037C7FECA1308E7AB3727004234C324
S21400867EB7C6ADDE68C32CC770C7232204011385A8
S21200868EF6EE08C00145F240624405618280A7
S21410000001020408102040801B3663657365343087
S20E100010343070617373776F7264FA
S20610001A0000CF
S8040080D2A9
